{
  "_format": "hh-sol-artifact-1",
  "contractName": "CrowdFunding",
  "sourceName": "contracts/CrowdFunding.sol",
  "abi": [
    {
      "inputs": [
        {
          "internalType": "uint256",
          "name": "_id",
          "type": "uint256"
        },
        {
          "internalType": "address",
          "name": "adminAddress",
          "type": "address"
        }
      ],
      "name": "approveCampaign",
      "outputs": [],
      "stateMutability": "nonpayable",
      "type": "function"
    },
    {
      "inputs": [
        {
          "internalType": "uint256",
          "name": "id",
          "type": "uint256"
        },
        {
          "internalType": "uint256",
          "name": "status",
          "type": "uint256"
        }
      ],
      "name": "auditorResponce",
      "outputs": [],
      "stateMutability": "nonpayable",
      "type": "function"
    },
    {
      "inputs": [
        {
          "internalType": "string",
          "name": "_title",
          "type": "string"
        },
        {
          "internalType": "string",
          "name": "_description",
          "type": "string"
        },
        {
          "internalType": "string",
          "name": "_startDate",
          "type": "string"
        },
        {
          "internalType": "string",
          "name": "_endDate",
          "type": "string"
        },
        {
          "internalType": "string[]",
          "name": "_documents",
          "type": "string[]"
        },
        {
          "internalType": "uint256",
          "name": "_fundingGoal",
          "type": "uint256"
        }
      ],
      "name": "createCampaign",
      "outputs": [],
      "stateMutability": "nonpayable",
      "type": "function"
    },
    {
      "inputs": [
        {
          "internalType": "uint256",
          "name": "_id",
          "type": "uint256"
        },
        {
          "internalType": "address",
          "name": "adminAddress",
          "type": "address"
        }
      ],
      "name": "declineCampaign",
      "outputs": [],
      "stateMutability": "nonpayable",
      "type": "function"
    },
    {
      "inputs": [
        {
          "internalType": "uint256",
          "name": "_id",
          "type": "uint256"
        }
      ],
      "name": "donateCampaignToAgent",
      "outputs": [],
      "stateMutability": "payable",
      "type": "function"
    },
    {
      "inputs": [
        {
          "internalType": "uint256",
          "name": "_id",
          "type": "uint256"
        }
      ],
      "name": "donateCampaignToUser",
      "outputs": [],
      "stateMutability": "payable",
      "type": "function"
    },
    {
      "inputs": [
        {
          "internalType": "address",
          "name": "recipient",
          "type": "address"
        }
      ],
      "name": "revertAmount",
      "outputs": [],
      "stateMutability": "payable",
      "type": "function"
    },
    {
      "inputs": [
        {
          "internalType": "uint256",
          "name": "id",
          "type": "uint256"
        }
      ],
      "name": "setAuditors",
      "outputs": [],
      "stateMutability": "nonpayable",
      "type": "function"
    },
    {
      "inputs": [
        {
          "internalType": "uint256",
          "name": "start",
          "type": "uint256"
        },
        {
          "internalType": "uint256",
          "name": "stop",
          "type": "uint256"
        },
        {
          "internalType": "address[]",
          "name": "user",
          "type": "address[]"
        },
        {
          "internalType": "uint256",
          "name": "id",
          "type": "uint256"
        }
      ],
      "name": "slice",
      "outputs": [],
      "stateMutability": "nonpayable",
      "type": "function"
    },
    {
      "inputs": [
        {
          "internalType": "uint256",
          "name": "id",
          "type": "uint256"
        },
        {
          "internalType": "uint256",
          "name": "val",
          "type": "uint256"
        }
      ],
      "name": "updateCampaignStatus",
      "outputs": [],
      "stateMutability": "nonpayable",
      "type": "function"
    },
    {
      "inputs": [
        {
          "internalType": "uint256",
          "name": "id",
          "type": "uint256"
        }
      ],
      "name": "auditStatus",
      "outputs": [
        {
          "internalType": "uint256",
          "name": "",
          "type": "uint256"
        }
      ],
      "stateMutability": "view",
      "type": "function"
    },
    {
      "inputs": [
        {
          "internalType": "uint256",
          "name": "",
          "type": "uint256"
        }
      ],
      "name": "campaigns",
      "outputs": [
        {
          "internalType": "address payable",
          "name": "creatorId",
          "type": "address"
        },
        {
          "internalType": "string",
          "name": "title",
          "type": "string"
        },
        {
          "internalType": "string",
          "name": "description",
          "type": "string"
        },
        {
          "internalType": "string",
          "name": "startDate",
          "type": "string"
        },
        {
          "internalType": "string",
          "name": "endDate",
          "type": "string"
        },
        {
          "internalType": "uint256",
          "name": "fundingGoal",
          "type": "uint256"
        },
        {
          "internalType": "uint256",
          "name": "amountRaised",
          "type": "uint256"
        },
        {
          "internalType": "uint256",
          "name": "status",
          "type": "uint256"
        },
        {
          "internalType": "uint256",
          "name": "numberOfAuditors",
          "type": "uint256"
        },
        {
          "internalType": "uint256",
          "name": "campaignId",
          "type": "uint256"
        },
        {
          "internalType": "uint256",
          "name": "isVerified",
          "type": "uint256"
        }
      ],
      "stateMutability": "view",
      "type": "function"
    },
    {
      "inputs": [
        {
          "internalType": "address",
          "name": "user",
          "type": "address"
        }
      ],
      "name": "fundRaiserPrevioudCampaigns",
      "outputs": [
        {
          "components": [
            {
              "internalType": "uint256",
              "name": "risk",
              "type": "uint256"
            },
            {
              "internalType": "uint256[]",
              "name": "previousCampaigns",
              "type": "uint256[]"
            },
            {
              "internalType": "bool",
              "name": "exists",
              "type": "bool"
            }
          ],
          "internalType": "struct CrowdFunding.FundRaiser",
          "name": "",
          "type": "tuple"
        }
      ],
      "stateMutability": "view",
      "type": "function"
    },
    {
      "inputs": [],
      "name": "getAllCampaigns",
      "outputs": [
        {
          "components": [
            {
              "internalType": "address payable",
              "name": "creatorId",
              "type": "address"
            },
            {
              "internalType": "string",
              "name": "title",
              "type": "string"
            },
            {
              "internalType": "string",
              "name": "description",
              "type": "string"
            },
            {
              "internalType": "string",
              "name": "startDate",
              "type": "string"
            },
            {
              "internalType": "string",
              "name": "endDate",
              "type": "string"
            },
            {
              "internalType": "uint256",
              "name": "fundingGoal",
              "type": "uint256"
            },
            {
              "internalType": "uint256",
              "name": "amountRaised",
              "type": "uint256"
            },
            {
              "internalType": "string[]",
              "name": "documents",
              "type": "string[]"
            },
            {
              "internalType": "address[]",
              "name": "donorAddresses",
              "type": "address[]"
            },
            {
              "internalType": "uint256[]",
              "name": "donatedAmount",
              "type": "uint256[]"
            },
            {
              "internalType": "uint256",
              "name": "status",
              "type": "uint256"
            },
            {
              "internalType": "uint256",
              "name": "numberOfAuditors",
              "type": "uint256"
            },
            {
              "internalType": "address[]",
              "name": "auditorAddress",
              "type": "address[]"
            },
            {
              "internalType": "uint256[]",
              "name": "auditorStatus",
              "type": "uint256[]"
            },
            {
              "internalType": "uint256",
              "name": "campaignId",
              "type": "uint256"
            },
            {
              "internalType": "uint256",
              "name": "isVerified",
              "type": "uint256"
            },
            {
              "internalType": "uint256[]",
              "name": "verificationStatus",
              "type": "uint256[]"
            },
            {
              "internalType": "address[]",
              "name": "adminAddress",
              "type": "address[]"
            }
          ],
          "internalType": "struct CrowdFunding.Campaign[]",
          "name": "",
          "type": "tuple[]"
        },
        {
          "internalType": "uint256[]",
          "name": "",
          "type": "uint256[]"
        }
      ],
      "stateMutability": "view",
      "type": "function"
    },
    {
      "inputs": [
        {
          "internalType": "uint256",
          "name": "id",
          "type": "uint256"
        }
      ],
      "name": "getAmountRaised",
      "outputs": [
        {
          "internalType": "uint256",
          "name": "",
          "type": "uint256"
        }
      ],
      "stateMutability": "view",
      "type": "function"
    },
    {
      "inputs": [
        {
          "internalType": "uint256",
          "name": "id",
          "type": "uint256"
        }
      ],
      "name": "getAuditors",
      "outputs": [
        {
          "internalType": "address[]",
          "name": "",
          "type": "address[]"
        }
      ],
      "stateMutability": "view",
      "type": "function"
    },
    {
      "inputs": [
        {
          "internalType": "uint256",
          "name": "_id",
          "type": "uint256"
        }
      ],
      "name": "getCampaign",
      "outputs": [
        {
          "internalType": "address",
          "name": "creatorId",
          "type": "address"
        },
        {
          "internalType": "string",
          "name": "title",
          "type": "string"
        },
        {
          "internalType": "string",
          "name": "description",
          "type": "string"
        },
        {
          "internalType": "string",
          "name": "startDate",
          "type": "string"
        },
        {
          "internalType": "string",
          "name": "endDate",
          "type": "string"
        },
        {
          "internalType": "uint256",
          "name": "fundingGoal",
          "type": "uint256"
        },
        {
          "internalType": "uint256",
          "name": "amountRaised",
          "type": "uint256"
        },
        {
          "internalType": "uint256",
          "name": "status",
          "type": "uint256"
        },
        {
          "internalType": "string[]",
          "name": "documents",
          "type": "string[]"
        },
        {
          "internalType": "uint256",
          "name": "numberOfAuditors",
          "type": "uint256"
        }
      ],
      "stateMutability": "view",
      "type": "function"
    },
    {
      "inputs": [],
      "name": "getDonorDetails",
      "outputs": [
        {
          "internalType": "uint256[]",
          "name": "",
          "type": "uint256[]"
        },
        {
          "internalType": "uint256[]",
          "name": "",
          "type": "uint256[]"
        },
        {
          "internalType": "uint256[]",
          "name": "",
          "type": "uint256[]"
        },
        {
          "internalType": "uint256[]",
          "name": "",
          "type": "uint256[]"
        }
      ],
      "stateMutability": "view",
      "type": "function"
    },
    {
      "inputs": [
        {
          "internalType": "uint256",
          "name": "_id",
          "type": "uint256"
        }
      ],
      "name": "getDonors",
      "outputs": [
        {
          "internalType": "address[]",
          "name": "",
          "type": "address[]"
        },
        {
          "internalType": "uint256[]",
          "name": "",
          "type": "uint256[]"
        }
      ],
      "stateMutability": "view",
      "type": "function"
    },
    {
      "inputs": [],
      "name": "getPendingCampaigns",
      "outputs": [
        {
          "components": [
            {
              "internalType": "address payable",
              "name": "creatorId",
              "type": "address"
            },
            {
              "internalType": "string",
              "name": "title",
              "type": "string"
            },
            {
              "internalType": "string",
              "name": "description",
              "type": "string"
            },
            {
              "internalType": "string",
              "name": "startDate",
              "type": "string"
            },
            {
              "internalType": "string",
              "name": "endDate",
              "type": "string"
            },
            {
              "internalType": "uint256",
              "name": "fundingGoal",
              "type": "uint256"
            },
            {
              "internalType": "uint256",
              "name": "amountRaised",
              "type": "uint256"
            },
            {
              "internalType": "string[]",
              "name": "documents",
              "type": "string[]"
            },
            {
              "internalType": "address[]",
              "name": "donorAddresses",
              "type": "address[]"
            },
            {
              "internalType": "uint256[]",
              "name": "donatedAmount",
              "type": "uint256[]"
            },
            {
              "internalType": "uint256",
              "name": "status",
              "type": "uint256"
            },
            {
              "internalType": "uint256",
              "name": "numberOfAuditors",
              "type": "uint256"
            },
            {
              "internalType": "address[]",
              "name": "auditorAddress",
              "type": "address[]"
            },
            {
              "internalType": "uint256[]",
              "name": "auditorStatus",
              "type": "uint256[]"
            },
            {
              "internalType": "uint256",
              "name": "campaignId",
              "type": "uint256"
            },
            {
              "internalType": "uint256",
              "name": "isVerified",
              "type": "uint256"
            },
            {
              "internalType": "uint256[]",
              "name": "verificationStatus",
              "type": "uint256[]"
            },
            {
              "internalType": "address[]",
              "name": "adminAddress",
              "type": "address[]"
            }
          ],
          "internalType": "struct CrowdFunding.Campaign[]",
          "name": "",
          "type": "tuple[]"
        },
        {
          "internalType": "uint256[]",
          "name": "",
          "type": "uint256[]"
        }
      ],
      "stateMutability": "view",
      "type": "function"
    },
    {
      "inputs": [
        {
          "internalType": "uint256",
          "name": "_id",
          "type": "uint256"
        }
      ],
      "name": "isOver",
      "outputs": [
        {
          "internalType": "uint256",
          "name": "",
          "type": "uint256"
        }
      ],
      "stateMutability": "view",
      "type": "function"
    },
    {
      "inputs": [],
      "name": "unverifiedCampaign",
      "outputs": [
        {
          "components": [
            {
              "internalType": "address payable",
              "name": "creatorId",
              "type": "address"
            },
            {
              "internalType": "string",
              "name": "title",
              "type": "string"
            },
            {
              "internalType": "string",
              "name": "description",
              "type": "string"
            },
            {
              "internalType": "string",
              "name": "startDate",
              "type": "string"
            },
            {
              "internalType": "string",
              "name": "endDate",
              "type": "string"
            },
            {
              "internalType": "uint256",
              "name": "fundingGoal",
              "type": "uint256"
            },
            {
              "internalType": "uint256",
              "name": "amountRaised",
              "type": "uint256"
            },
            {
              "internalType": "string[]",
              "name": "documents",
              "type": "string[]"
            },
            {
              "internalType": "address[]",
              "name": "donorAddresses",
              "type": "address[]"
            },
            {
              "internalType": "uint256[]",
              "name": "donatedAmount",
              "type": "uint256[]"
            },
            {
              "internalType": "uint256",
              "name": "status",
              "type": "uint256"
            },
            {
              "internalType": "uint256",
              "name": "numberOfAuditors",
              "type": "uint256"
            },
            {
              "internalType": "address[]",
              "name": "auditorAddress",
              "type": "address[]"
            },
            {
              "internalType": "uint256[]",
              "name": "auditorStatus",
              "type": "uint256[]"
            },
            {
              "internalType": "uint256",
              "name": "campaignId",
              "type": "uint256"
            },
            {
              "internalType": "uint256",
              "name": "isVerified",
              "type": "uint256"
            },
            {
              "internalType": "uint256[]",
              "name": "verificationStatus",
              "type": "uint256[]"
            },
            {
              "internalType": "address[]",
              "name": "adminAddress",
              "type": "address[]"
            }
          ],
          "internalType": "struct CrowdFunding.Campaign[]",
          "name": "",
          "type": "tuple[]"
        }
      ],
      "stateMutability": "view",
      "type": "function"
    }
  ],
  "bytecode": "0x6080604052600060015534801561001557600080fd5b50612625806100256000396000f3fe60806040526004361061007b5760003560e01c80635598f8cc1161004e5780635598f8cc146101475780636b933a9d1461018c57806386cdf604146101a8578063c812fae4146101d35761007b565b8063120aff5e14610080578063141961bc1461009c578063265d185f146100e05780632951651114610109575b600080fd5b61009a60048036038101906100959190611519565b610210565b005b3480156100a857600080fd5b506100c360048036038101906100be9190611519565b61029b565b6040516100d7989796959493929190611641565b60405180910390f35b3480156100ec57600080fd5b50610107600480360381019061010291906118f6565b610530565b005b34801561011557600080fd5b50610130600480360381019061012b9190611519565b61063d565b60405161013e929190611b9d565b60405180910390f35b34801561015357600080fd5b5061016e60048036038101906101699190611519565b610786565b60405161018399989796959493929190611cef565b60405180910390f35b6101a660048036038101906101a19190611519565b610b67565b005b3480156101b457600080fd5b506101bd610df9565b6040516101ca91906120fc565b60405180910390f35b3480156101df57600080fd5b506101fa60048036038101906101f59190611519565b611345565b604051610207919061211e565b60405180910390f35b6000806000838152602001908152602001600020905060008160000160009054906101000a900473ffffffffffffffffffffffffffffffffffffffff1690508073ffffffffffffffffffffffffffffffffffffffff166108fc349081150290604051600060405180830381858888f19350505050158015610295573d6000803e3d6000fd5b50505050565b60006020528060005260406000206000915090508060000160009054906101000a900473ffffffffffffffffffffffffffffffffffffffff16908060010180546102e490612168565b80601f016020809104026020016040519081016040528092919081815260200182805461031090612168565b801561035d5780601f106103325761010080835404028352916020019161035d565b820191906000526020600020905b81548152906001019060200180831161034057829003601f168201915b50505050509080600201805461037290612168565b80601f016020809104026020016040519081016040528092919081815260200182805461039e90612168565b80156103eb5780601f106103c0576101008083540402835291602001916103eb565b820191906000526020600020905b8154815290600101906020018083116103ce57829003601f168201915b50505050509080600301805461040090612168565b80601f016020809104026020016040519081016040528092919081815260200182805461042c90612168565b80156104795780601f1061044e57610100808354040283529160200191610479565b820191906000526020600020905b81548152906001019060200180831161045c57829003601f168201915b50505050509080600401805461048e90612168565b80601f01602080910402602001604051908101604052809291908181526020018280546104ba90612168565b80156105075780601f106104dc57610100808354040283529160200191610507565b820191906000526020600020905b8154815290600101906020018083116104ea57829003601f168201915b5050505050908060050154908060060154908060070160009054906101000a900460ff16905088565b600080600060015481526020019081526020016000209050338160000160006101000a81548173ffffffffffffffffffffffffffffffffffffffff021916908373ffffffffffffffffffffffffffffffffffffffff1602179055508681600101908161059c9190612345565b50858160020190816105ae9190612345565b50848160030190816105c09190612345565b50838160040190816105d29190612345565b508181600501819055506000816006018190555060008160070160006101000a81548160ff0219169083151502179055508281600801908051906020019061061b929190611383565b506001600081548092919061062f90612446565b919050555050505050505050565b6060806001548310610684576040517f08c379a000000000000000000000000000000000000000000000000000000000815260040161067b906124da565b60405180910390fd5b600080600085815260200190815260200160002090508060090181600a018180548060200260200160405190810160405280929190818152602001828054801561072357602002820191906000526020600020905b8160009054906101000a900473ffffffffffffffffffffffffffffffffffffffff1673ffffffffffffffffffffffffffffffffffffffff16815260200190600101908083116106d9575b505050505091508080548060200260200160405190810160405280929190818152602001828054801561077557602002820191906000526020600020905b815481526020019060010190808311610761575b505050505090509250925050915091565b6000606080606080600080600060606001548a106107d9576040517f08c379a00000000000000000000000000000000000000000000000000000000081526004016107d0906124da565b60405180910390fd5b60008060008c815260200190815260200160002090508060000160009054906101000a900473ffffffffffffffffffffffffffffffffffffffff1681600101826002018360030184600401856005015486600601548760070160009054906101000a900460ff168860080187805461085090612168565b80601f016020809104026020016040519081016040528092919081815260200182805461087c90612168565b80156108c95780601f1061089e576101008083540402835291602001916108c9565b820191906000526020600020905b8154815290600101906020018083116108ac57829003601f168201915b505050505097508680546108dc90612168565b80601f016020809104026020016040519081016040528092919081815260200182805461090890612168565b80156109555780601f1061092a57610100808354040283529160200191610955565b820191906000526020600020905b81548152906001019060200180831161093857829003601f168201915b5050505050965085805461096890612168565b80601f016020809104026020016040519081016040528092919081815260200182805461099490612168565b80156109e15780601f106109b6576101008083540402835291602001916109e1565b820191906000526020600020905b8154815290600101906020018083116109c457829003601f168201915b505050505095508480546109f490612168565b80601f0160208091040260200160405190810160405280929190818152602001828054610a2090612168565b8015610a6d5780601f10610a4257610100808354040283529160200191610a6d565b820191906000526020600020905b815481529060010190602001808311610a5057829003601f168201915b5050505050945080805480602002602001604051908101604052809291908181526020016000905b82821015610b41578382906000526020600020018054610ab490612168565b80601f0160208091040260200160405190810160405280929190818152602001828054610ae090612168565b8015610b2d5780601f10610b0257610100808354040283529160200191610b2d565b820191906000526020600020905b815481529060010190602001808311610b1057829003601f168201915b505050505081526020019060010190610a95565b505050509050995099509950995099509950995099509950509193959799909294969850565b6001548110610bab576040517f08c379a0000000000000000000000000000000000000000000000000000000008152600401610ba2906124da565b60405180910390fd5b60003411610bee576040517f08c379a0000000000000000000000000000000000000000000000000000000008152600401610be59061256c565b60405180910390fd5b6000806000838152602001908152602001600020905060008060005b8360090180549050811015610ca1573373ffffffffffffffffffffffffffffffffffffffff16846009018281548110610c4657610c4561258c565b5b9060005260206000200160009054906101000a900473ffffffffffffffffffffffffffffffffffffffff1673ffffffffffffffffffffffffffffffffffffffff1603610c9457600192508091505b8080600101915050610c0a565b5060008203610d3f5782600901339080600181540180825580915050600190039060005260206000200160009091909190916101000a81548173ffffffffffffffffffffffffffffffffffffffff021916908373ffffffffffffffffffffffffffffffffffffffff16021790555082600a01349080600181540180825580915050600190039060005260206000200160009091909190915055610d77565b3483600a018281548110610d5657610d5561258c565b5b906000526020600020016000828254610d6f91906125bb565b925050819055505b34836006016000828254610d8b91906125bb565b925050819055506000731a8d151bc17d018a1934d178d1f7c735a4d7709a90508073ffffffffffffffffffffffffffffffffffffffff166108fc349081150290604051600060405180830381858888f19350505050158015610df1573d6000803e3d6000fd5b505050505050565b6060600060015467ffffffffffffffff811115610e1957610e186116e5565b5b604051908082528060200260200182016040528015610e5257816020015b610e3f6113dc565b815260200190600190039081610e375790505b50905060005b60015481101561133d576000806000838152602001908152602001600020905080604051806101600160405290816000820160009054906101000a900473ffffffffffffffffffffffffffffffffffffffff1673ffffffffffffffffffffffffffffffffffffffff1673ffffffffffffffffffffffffffffffffffffffff168152602001600182018054610eeb90612168565b80601f0160208091040260200160405190810160405280929190818152602001828054610f1790612168565b8015610f645780601f10610f3957610100808354040283529160200191610f64565b820191906000526020600020905b815481529060010190602001808311610f4757829003601f168201915b50505050508152602001600282018054610f7d90612168565b80601f0160208091040260200160405190810160405280929190818152602001828054610fa990612168565b8015610ff65780601f10610fcb57610100808354040283529160200191610ff6565b820191906000526020600020905b815481529060010190602001808311610fd957829003601f168201915b5050505050815260200160038201805461100f90612168565b80601f016020809104026020016040519081016040528092919081815260200182805461103b90612168565b80156110885780601f1061105d57610100808354040283529160200191611088565b820191906000526020600020905b81548152906001019060200180831161106b57829003601f168201915b505050505081526020016004820180546110a190612168565b80601f01602080910402602001604051908101604052809291908181526020018280546110cd90612168565b801561111a5780601f106110ef5761010080835404028352916020019161111a565b820191906000526020600020905b8154815290600101906020018083116110fd57829003601f168201915b5050505050815260200160058201548152602001600682015481526020016007820160009054906101000a900460ff1615151515815260200160088201805480602002602001604051908101604052809291908181526020016000905b8282101561122357838290600052602060002001805461119690612168565b80601f01602080910402602001604051908101604052809291908181526020018280546111c290612168565b801561120f5780601f106111e45761010080835404028352916020019161120f565b820191906000526020600020905b8154815290600101906020018083116111f257829003601f168201915b505050505081526020019060010190611177565b505050508152602001600982018054806020026020016040519081016040528092919081815260200182805480156112b057602002820191906000526020600020905b8160009054906101000a900473ffffffffffffffffffffffffffffffffffffffff1673ffffffffffffffffffffffffffffffffffffffff1681526020019060010190808311611266575b50505050508152602001600a820180548060200260200160405190810160405280929190818152602001828054801561130857602002820191906000526020600020905b8154815260200190600101908083116112f4575b5050505050815250508383815181106113245761132361258c565b5b6020026020010181905250508080600101915050610e58565b508091505090565b6000806000808481526020019081526020016000209050806005015481600601541061137857806006015491505061137e565b60009150505b919050565b8280548282559060005260206000209081019282156113cb579160200282015b828111156113ca5782518290816113ba9190612345565b50916020019190600101906113a3565b5b5090506113d8919061144e565b5090565b604051806101600160405280600073ffffffffffffffffffffffffffffffffffffffff1681526020016060815260200160608152602001606081526020016060815260200160008152602001600081526020016000151581526020016060815260200160608152602001606081525090565b5b8082111561146e57600081816114659190611472565b5060010161144f565b5090565b50805461147e90612168565b6000825580601f1061149057506114af565b601f0160209004906000526020600020908101906114ae91906114b2565b5b50565b5b808211156114cb5760008160009055506001016114b3565b5090565b6000604051905090565b600080fd5b600080fd5b6000819050919050565b6114f6816114e3565b811461150157600080fd5b50565b600081359050611513816114ed565b92915050565b60006020828403121561152f5761152e6114d9565b5b600061153d84828501611504565b91505092915050565b600073ffffffffffffffffffffffffffffffffffffffff82169050919050565b600061157182611546565b9050919050565b61158181611566565b82525050565b600081519050919050565b600082825260208201905092915050565b60005b838110156115c15780820151818401526020810190506115a6565b60008484015250505050565b6000601f19601f8301169050919050565b60006115e982611587565b6115f38185611592565b93506116038185602086016115a3565b61160c816115cd565b840191505092915050565b611620816114e3565b82525050565b60008115159050919050565b61163b81611626565b82525050565b600061010082019050611657600083018b611578565b8181036020830152611669818a6115de565b9050818103604083015261167d81896115de565b9050818103606083015261169181886115de565b905081810360808301526116a581876115de565b90506116b460a0830186611617565b6116c160c0830185611617565b6116ce60e0830184611632565b9998505050505050505050565b600080fd5b600080fd5b7f4e487b7100000000000000000000000000000000000000000000000000000000600052604160045260246000fd5b61171d826115cd565b810181811067ffffffffffffffff8211171561173c5761173b6116e5565b5b80604052505050565b600061174f6114cf565b905061175b8282611714565b919050565b600067ffffffffffffffff82111561177b5761177a6116e5565b5b611784826115cd565b9050602081019050919050565b82818337600083830152505050565b60006117b36117ae84611760565b611745565b9050828152602081018484840111156117cf576117ce6116e0565b5b6117da848285611791565b509392505050565b600082601f8301126117f7576117f66116db565b5b81356118078482602086016117a0565b91505092915050565b600067ffffffffffffffff82111561182b5761182a6116e5565b5b602082029050602081019050919050565b600080fd5b600061185461184f84611810565b611745565b905080838252602082019050602084028301858111156118775761187661183c565b5b835b818110156118be57803567ffffffffffffffff81111561189c5761189b6116db565b5b8086016118a989826117e2565b85526020850194505050602081019050611879565b5050509392505050565b600082601f8301126118dd576118dc6116db565b5b81356118ed848260208601611841565b91505092915050565b60008060008060008060c08789031215611913576119126114d9565b5b600087013567ffffffffffffffff811115611931576119306114de565b5b61193d89828a016117e2565b965050602087013567ffffffffffffffff81111561195e5761195d6114de565b5b61196a89828a016117e2565b955050604087013567ffffffffffffffff81111561198b5761198a6114de565b5b61199789828a016117e2565b945050606087013567ffffffffffffffff8111156119b8576119b76114de565b5b6119c489828a016117e2565b935050608087013567ffffffffffffffff8111156119e5576119e46114de565b5b6119f189828a016118c8565b92505060a0611a0289828a01611504565b9150509295509295509295565b600081519050919050565b600082825260208201905092915050565b6000819050602082019050919050565b6000611a4682611546565b9050919050565b611a5681611a3b565b82525050565b6000611a688383611a4d565b60208301905092915050565b6000602082019050919050565b6000611a8c82611a0f565b611a968185611a1a565b9350611aa183611a2b565b8060005b83811015611ad2578151611ab98882611a5c565b9750611ac483611a74565b925050600181019050611aa5565b5085935050505092915050565b600081519050919050565b600082825260208201905092915050565b6000819050602082019050919050565b611b14816114e3565b82525050565b6000611b268383611b0b565b60208301905092915050565b6000602082019050919050565b6000611b4a82611adf565b611b548185611aea565b9350611b5f83611afb565b8060005b83811015611b90578151611b778882611b1a565b9750611b8283611b32565b925050600181019050611b63565b5085935050505092915050565b60006040820190508181036000830152611bb78185611a81565b90508181036020830152611bcb8184611b3f565b90509392505050565b611bdd81611a3b565b82525050565b600081519050919050565b600082825260208201905092915050565b6000819050602082019050919050565b600082825260208201905092915050565b6000611c2b82611587565b611c358185611c0f565b9350611c458185602086016115a3565b611c4e816115cd565b840191505092915050565b6000611c658383611c20565b905092915050565b6000602082019050919050565b6000611c8582611be3565b611c8f8185611bee565b935083602082028501611ca185611bff565b8060005b85811015611cdd5784840389528151611cbe8582611c59565b9450611cc983611c6d565b925060208a01995050600181019050611ca5565b50829750879550505050505092915050565b600061012082019050611d05600083018c611bd4565b8181036020830152611d17818b6115de565b90508181036040830152611d2b818a6115de565b90508181036060830152611d3f81896115de565b90508181036080830152611d5381886115de565b9050611d6260a0830187611617565b611d6f60c0830186611617565b611d7c60e0830185611632565b818103610100830152611d8f8184611c7a565b90509a9950505050505050505050565b600081519050919050565b600082825260208201905092915050565b6000819050602082019050919050565b611dd481611566565b82525050565b611de381611626565b82525050565b600082825260208201905092915050565b6000611e0582611be3565b611e0f8185611de9565b935083602082028501611e2185611bff565b8060005b85811015611e5d5784840389528151611e3e8582611c59565b9450611e4983611c6d565b925060208a01995050600181019050611e25565b50829750879550505050505092915050565b600082825260208201905092915050565b6000611e8b82611a0f565b611e958185611e6f565b9350611ea083611a2b565b8060005b83811015611ed1578151611eb88882611a5c565b9750611ec383611a74565b925050600181019050611ea4565b5085935050505092915050565b600082825260208201905092915050565b6000611efa82611adf565b611f048185611ede565b9350611f0f83611afb565b8060005b83811015611f40578151611f278882611b1a565b9750611f3283611b32565b925050600181019050611f13565b5085935050505092915050565b600061016083016000830151611f666000860182611dcb565b5060208301518482036020860152611f7e8282611c20565b91505060408301518482036040860152611f988282611c20565b91505060608301518482036060860152611fb28282611c20565b91505060808301518482036080860152611fcc8282611c20565b91505060a0830151611fe160a0860182611b0b565b5060c0830151611ff460c0860182611b0b565b5060e083015161200760e0860182611dda565b506101008301518482036101008601526120218282611dfa565b91505061012083015184820361012086015261203d8282611e80565b9150506101408301518482036101408601526120598282611eef565b9150508091505092915050565b60006120728383611f4d565b905092915050565b6000602082019050919050565b600061209282611d9f565b61209c8185611daa565b9350836020820285016120ae85611dbb565b8060005b858110156120ea57848403895281516120cb8582612066565b94506120d68361207a565b925060208a019950506001810190506120b2565b50829750879550505050505092915050565b600060208201905081810360008301526121168184612087565b905092915050565b60006020820190506121336000830184611617565b92915050565b7f4e487b7100000000000000000000000000000000000000000000000000000000600052602260045260246000fd5b6000600282049050600182168061218057607f821691505b60208210810361219357612192612139565b5b50919050565b60008190508160005260206000209050919050565b60006020601f8301049050919050565b600082821b905092915050565b6000600883026121fb7fffffffffffffffffffffffffffffffffffffffffffffffffffffffffffffffff826121be565b61220586836121be565b95508019841693508086168417925050509392505050565b6000819050919050565b600061224261223d612238846114e3565b61221d565b6114e3565b9050919050565b6000819050919050565b61225c83612227565b61227061226882612249565b8484546121cb565b825550505050565b600090565b612285612278565b612290818484612253565b505050565b5b818110156122b4576122a960008261227d565b600181019050612296565b5050565b601f8211156122f9576122ca81612199565b6122d3846121ae565b810160208510156122e2578190505b6122f66122ee856121ae565b830182612295565b50505b505050565b600082821c905092915050565b600061231c600019846008026122fe565b1980831691505092915050565b6000612335838361230b565b9150826002028217905092915050565b61234e82611587565b67ffffffffffffffff811115612367576123666116e5565b5b6123718254612168565b61237c8282856122b8565b600060209050601f8311600181146123af576000841561239d578287015190505b6123a78582612329565b86555061240f565b601f1984166123bd86612199565b60005b828110156123e5578489015182556001820191506020850194506020810190506123c0565b8683101561240257848901516123fe601f89168261230b565b8355505b6001600288020188555050505b505050505050565b7f4e487b7100000000000000000000000000000000000000000000000000000000600052601160045260246000fd5b6000612451826114e3565b91507fffffffffffffffffffffffffffffffffffffffffffffffffffffffffffffffff820361248357612482612417565b5b600182019050919050565b7f43616d706169676e20646f6573206e6f74206578697374000000000000000000600082015250565b60006124c4601783611592565b91506124cf8261248e565b602082019050919050565b600060208201905081810360008301526124f3816124b7565b9050919050565b7f446f6e6174696f6e20616d6f756e74206d75737420626520677265617465722060008201527f7468616e207a65726f0000000000000000000000000000000000000000000000602082015250565b6000612556602983611592565b9150612561826124fa565b604082019050919050565b6000602082019050818103600083015261258581612549565b9050919050565b7f4e487b7100000000000000000000000000000000000000000000000000000000600052603260045260246000fd5b60006125c6826114e3565b91506125d1836114e3565b92508282019050808211156125e9576125e8612417565b5b9291505056fea26469706673582212201a12b8931006362880d6b7d082d6193cddec1af325da80042af0e222ed68c4e464736f6c63430008180033",
  "linkReferences": {},
  "deployedLinkReferences": {}
}